:020000021000EC
:10E0000045C0000062C0000060C000005EC00000AB
:10E010005CC000005AC0000058C0000056C000009C
:10E0200054C0000052C0000050C000004EC00000AC
:10E030004CC000004AC00000B9C6000046C0000045
:10E0400044C0000042C0000040C000003EC00000CC
:10E050003CC000003AC0000038C0000036C00000DC
:10E0600034C0000032C0000030C000002EC00000EC
:10E070002CC000002AC0000028C0000026C00000FC
:10E0800024C0000022C0000020C0000011241FBED8
:10E09000CFEFD0E1DEBFCDBF11E0A0E0B1E0E4EE14
:10E0A000F7EF01E00BBF02C007900D92A630B10759
:10E0B000D9F715E0A6E0B1E001C01D92AC39B10777
:10E0C000E1F70E9432FB0C94F0FB9ACF82E38BBB0A
:10E0D00087E78ABB81E688BB84E987BB15BA8DEFE9
:10E0E00084BB12BA88E081BB13B882E082B9109277
:10E0F00062008FEF809361000895C098962F9F7102
:10E10000982B9FB9779BFECF1FB8779BFECF67FDFB
:10E1100003C08FB1C09A08951FB8779BFECFF9CF87
:10E12000C0986F71682B6FB9779BFECF4FB9779B03
:10E13000FECFC09A0895C0982AE32FB9779BFECFEF
:10E14000860F971F07C01FB8779BFECF2FB1FB012B
:10E150002193BF0168177907B1F7C09A0895C09855
:10E160002AE72FB9779BFECF860F971F06C0FB01CA
:10E170002191BF012FB9779BFECF68177907B9F7B7
:10E18000C09A08951F93CF93DF93182F1076C12F55
:10E19000D0E020919A0130E0C217D30779F043E034
:10E1A0006FE180EABDDFAE0185E0559547958A9520
:10E1B000E1F76FE180E8B4DF10939A01DF91CF912E
:10E1C0001F910895CF93DF931F92CDB7DEB7682FCD
:10E1D0006983D8DF698180E00F90DF91CF918DCF87
:10E1E0001F93CF93DF931F92CDB7DEB7182F6983AC
:10E1F000C9DF4981612F80E40F90DF91CF911F919A
:10E200008FCFCF93682F84EDEBDF61E082EDE8DF05
:10E210008AEED8DF80FDFCCF60E082EDE1DF88EDA3
:10E22000D1DFC82F89EDCEDF8C2B90E0CF91089500
:10E230001F93CF93DF931F92CDB7DEB7162F682FB2
:10E2400084ED7983CDDF612F86EDCADF7981672F79
:10E2500087EDC6DF8AEEB6DF80FDFCCF0F90DF9141
:10E26000CF911F910895CF93DF93EC01B89AC09A94
:10E27000C19AB99ABB98BA9AB89A6C9A6B986D98E9
:10E2800068986998709A6E9A4FEF60E08FEF48DF58
:10E2900084E39CE00197F1F700C0000080E096E085
:10E2A000909399018093980160E088E099DF66E09F
:10E2B00089E096DF60E08CE093DF66E08DE090DF40
:10E2C0006FEF8AE08DDF6FE18BE08ADF60E084E052
:10E2D00087DF60E085E084DF6DE080EC81DF60E077
:10E2E00081EC7EDF42E362EC80E81ADF62E186ECDB
:10E2F00077DF6CE087EC74DF62E184EC71DF6EEE57
:10E300008AEC6EDF65E08BEC6BDF688184EE68DFA2
:10E31000698185EE65DF6A8182EE62DF6B8183EE63
:10E320005FDF6C8180EE5CDF6D8181EE59DF60E044
:10E3300071E080E17DDF8FE125DF40EC6BE180E87B
:10E34000EFDE44E06FE180E8DF91CF91E9CECF923C
:10E35000DF92EF92FF920F931F93CF93DF938C0185
:10E360007B01EA01690140E86FE180E8D9DE40E81D
:10E370006FE180EAD5DE60E082E032DF60E083E0DA
:10E380002FDF6C2F600F86E02BDFCE01800F911FF7
:10E39000692F87E025DF40E060E08AE7C1DEB70152
:10E3A000C801DDDE209719F0B601CE01D8DE48E0C5
:10E3B0006FE180E8DF91CF911F910F91FF90EF9077
:10E3C000DF90CF90ADCEEF92FF920F931F93CF933C
:10E3D000DF938C017B0189E3F5DE882309F442C0D9
:10E3E0006091980180E0FCDE6091990181E0F8DEA7
:10E3F00060E08AE382DEC82FD0E0D0939901C09319
:10E40000980160E08AE379DE382F20E02C2B3D2B49
:10E41000309399012093980160E08AE36EDEC82F63
:10E42000D0E060E08AE369DE382F20E0C22BD32BF6
:10E4300060E08AE362DE60E08AE35FDE0C171D07BE
:10E4400008F4E801B701CE0176DE609198018CE016
:10E45000C7DE609199018DE0C3DE40E46EE180E8A3
:10E460005FDE02C0C0E0D0E0CE01DF91CF911F910E
:10E470000F91FF90EF9008950F931F93FC01890176
:10E480009A0180E090E007C041915191040F151F5F
:10E49000211D311D019686179707B1F706C0222767
:10E4A0003327080F191F2A1F3B1FC901AA27BB27A3
:10E4B0000097A105B10599F7B801C9011F910F9106
:10E4C0000895982789279827E6E0F1E020E030E0DA
:10E4D000408151818417950739F4220F331F220F91
:10E4E000331F2A5F3E4F08C02F5F3F4F34962A30BC
:10E4F000310571F720E030E0C90108954F925F9235
:10E500006F927F928F929F92AF92BF92CF92DF9243
:10E51000EF92FF920F931F93CF93DF93CDB7DEB7A8
:10E5200066970FB6F894DEBF0FBECDBF498B5A8BEE
:10E530006B8B7C8B8D8B9E8B49A55AA58DB79EB717
:10E540000F970FB6F8949EBF0FBE8DBF02968E7FB9
:10E5500066E0FE017196DC0101900D926A95E1F78B
:10E5600066E0E2E3F1E0DC01169601900D926A9517
:10E57000E1F7FC01358724879A8789871C870B87F9
:10E58000DE86CD86988A8F868EE090E09A83898396
:10E59000FC82EB82BE82AD8258874F83EE24E394E7
:10E5A000F12CEC0EFD1E5E01F9E0AF0EB11C350141
:10E5B00000E010E03BE9C32E31E0D32E4BE9442EBE
:10E5C00043E0542EF70120813181020F131FC20155
:10E5D0008C199D098217930710F491838083F701AA
:10E5E000819091907F01F50160817181F2E0AF0E21
:10E5F000B11CA401C6010E94B2FBC80CD91CE614D0
:10E60000F70401F70034110510F400E410E020E0F5
:10E6100030E040E050E06BE971E0C8010196669699
:10E620000FB6F894DEBF0FBECDBFDF91CF911F9123
:10E630000F91FF90EF90DF90CF90BF90AF909F90A1
:10E640008F907F906F905F904F9081CE4F925F92AE
:10E650006F927F928F929F92AF92BF92CF92DF92F2
:10E66000EF92FF920F931F93CF93DF93CDB7DEB757
:10E670006A970FB6F894DEBF0FBECDBF2B013C01E9
:10E68000690185E490E09A838983C7014C969827B5
:10E69000892798279C838B831E821D8280E490E0CB
:10E6A00098878F8350645427452754275A87498772
:10E6B0001C861B8660912E0170912F018091300184
:10E6C000909131010E949AFB6D877E878F87988B8E
:10E6D000498A5A8A6B8A7C8A20E030E0A9016AE084
:10E6E00070E0CE010196C8DE609570957C876B87DF
:10E6F000BE016B5E7F4FCE01419602D58823B9F0F3
:10E70000FF92EF92480158E0A52EB12C64E1E62E6D
:10E71000F12C8E010F5F1F4F28E030E04D895E899C
:10E720006F89788D898D9A8DE9DE0F900F906A96AA
:10E730000FB6F894DEBF0FBECDBFDF91CF911F9112
:10E740000F91FF90EF90DF90CF90BF90AF909F9090
:10E750008F907F906F905F904F900895E8E0F1E088
:10E7600011821082349681E0E033F807C9F70895EA
:10E770000F931F93CF93DF93182F092FEB01A1DE87
:10E78000009711F0FC0111C0A8E0B1E0E0E0F0E07A
:10E790002D913C911197232B59F4EE0FFF1FEE0F93
:10E7A000FF1FEA5FFE4F10830183D383C28306C03D
:10E7B00031961496EA30F10559F7C3D7DF91CF911E
:10E7C0001F910F910895CF92DF92EF92FF920F93D6
:10E7D0001F93CF93DF9300D000D000D0CDB7DEB72A
:10E7E00029833A834B835C836D837E83CDB6DEB60B
:10E7F0002DB73EB7295031090FB6F8943EBF0FBE72
:10E800002DBFEDB7FEB73296EE7F98278927982760
:10E810009183808389819A81982789279827938378
:10E820008283C70108969827892798279583848330
:10E83000178216826B817C818D819E819F0141E1CF
:10E8400050E004DF0FB6F894DEBE0FBECDBE2696B4
:10E850000FB6F894DEBF0FBECDBFDF91CF911F91F1
:10E860000F91FF90EF90DF90CF9008952F923F92FD
:10E870004F925F926F927F928F929F92AF92BF92D0
:10E88000CF92DF92EF92FF920F931F93CF93DF937C
:10E89000CDB7DEB7E0970FB6F894DEBF0FBECDBFA1
:10E8A0007C016DB67EB68DB79EB74F970FB6F894C4
:10E8B0009EBF0FBE8DBF0DB71EB70C5F1F4F0C7FE5
:10E8C0008091A8039091A9039827892798278630DB
:10E8D000A8E09A0709F0CDC0BEE0EB1AF108ECE120
:10E8E000EE16F10408F444C28091AA039091AB03A0
:10E8F0008115914009F03CC28091AC039091AD0329
:10E90000089709F035C28091AE03863009F030C215
:10E910008091AF03843009F02BC28091B0039091B5
:10E92000B10381159240D9F48091B8039091B90355
:10E93000A091BA03B091BB038DA79EA7AFA7B8ABB8
:10E9400086E0E2EBF3E0DE01919601900D928A956C
:10E95000E1F7BE016F5D7F4FCE018D965BD3809155
:10E96000B0039091B1038115914009F001C260910B
:10E97000C2037091C3038091C4039091C503DAD69A
:10E980006DA77EA78FA798AB44E050E06EE271E0E0
:10E99000CE018D96DAD6009709F0EAC186E0E2E36F
:10E9A000F1E0DE01979601900D928A95E1F7809152
:10E9B000AA039091AB03F801918380838091AC030B
:10E9C0009091AD03938382838091AE038483809181
:10E9D000AF03858380E092E09783868386E0FE0123
:10E9E000B796D801189601900D928A95E1F780911B
:10E9F000C2039091C303A091C403B091C503F80171
:10EA000086879787A08BB18B86E0E2EBF3E0D80195
:10EA1000529601900D928A95E1F78091B8039091FA
:10EA2000B903A091BA03B091BB03F801808F918F15
:10EA3000A28FB38F86E07296DE01919601900D92BF
:10EA40008A95E1F71F921F92812C912CA12CB12C59
:10EA5000C12CD12C8CE1E82EF12C28E036E049A124
:10EA60005AA16BA17CA18DA19EA148DD0F900F90B2
:10EA70007FC18115984009F07BC18091AA039091D4
:10EA8000AB039827892798279C01232F33272295AA
:10EA90002F702430310509F06BC1892F99278F70B1
:10EAA0009927059709F064C18091B0039091B10353
:10EAB0009827892798279F73892B09F059C146E029
:10EAC00050E060E071E08CE993E03FD68C0160910A
:10EAD0002E0170912F0180913001909131012AD641
:10EAE0006DA77EA78FA798AB44E050E0BE01635DA1
:10EAF0007F4F8AEB93E029D6012B19F0009709F09C
:10EB000037C162EA73E086EB93E084D28091B3036D
:10EB100090E08130910509F474C0419709F028C153
:10EB20002090B6033090B7034090B8035090B903DB
:10EB3000C090BA03D090BB038090BC039090BD03FB
:10EB400057012AE2A21AB1080091C0031091C10333
:10EB5000C801B7DC009709F40BC12091BE033091C6
:10EB6000BF033227232732272B863C864D865E86BD
:10EB70003A87298746E0FE013996DE015B960190CF
:10EB80000D924A95E1F73C8F2B8F26E0FE017B9694
:10EB9000DE01559601900D922A95E1F71027012785
:10EBA0001027CB86DC868D869E861A87098726E00D
:10EBB000FE013996DE011F9601900D922A95E1F72C
:10EBC000188B0F8726E0FE013F96DE011996019013
:10EBD0000D922A95E1F7DC011296ED91FC911397C5
:10EBE000A6ECCA2EA3E0DA2EE984FA840B851C85F4
:10EBF0002D853E854D895E896F89788D898D9A8DA9
:10EC000084C08090B6039090B703A090B803B090F2
:10EC1000B9038091BE03833021F0883009F0A8C089
:10EC200076C08091BF03833009F0A2C08091CE03EB
:10EC30009091CF0398278927813109F099C00091DD
:10EC4000DA031091DB03C8013CDC009709F490C0A3
:10EC50004091D2035091D3036091D4037091D503B6
:10EC60004B875C876D877E871A87098726E0FE01C0
:10EC70003996DE01559601900D922A95E1F71E8B8B
:10EC80000D8B26E0FE017596DE015B9601900D92DC
:10EC90002A95E1F72091DC033091DD034091D60302
:10ECA0005091D7036091D8037091D903498B5A8B47
:10ECB0006B8B7C8B388B2F8746E0FE013F96DE0105
:10ECC000199601900D924A95E1F73A87298726E037
:10ECD000FE013996DE011F9601900D922A95E1F70B
:10ECE000DC011296ED91FC911397A12CB12CC12C53
:10ECF000D12CEF84F88809891A892B893C894B8D9E
:10ED00005C8D6D8D7E8D8F8D98A1099531C0BAE295
:10ED1000EB1AF10819821A821C821B828091C203AD
:10ED20009091C3039E838D838091C4039091C5030A
:10ED300098878F8320E030E0A90164E070E0CE0185
:10ED400001969ADB9B01AC01B7017695679586EC3D
:10ED500093E092DB609570957C836B8306EC13E007
:10ED60009E012F5F3F4F41E050E0C501B4016EDCD2
:10ED70000FB6F8947EBE0FBE6DBEE0960FB6F89447
:10ED8000DEBF0FBECDBFDF91CF911F910F91FF90DE
:10ED9000EF90DF90CF90BF90AF909F908F907F903B
:10EDA0006F905F904F903F902F9008951F920F9219
:10EDB0000FB60F9211240BB60F921BBE2F933F93E9
:10EDC0004F935F936F937F938F939F93AF93BF9373
:10EDD000EF93FF93609138017091390180913A016E
:10EDE00090913B016F5F7F4F8F4F9F4F6093380132
:10EDF0007093390180933A0190933B0126E030E013
:10EE000040E050E075D4672B682B692B19F481E042
:10EE100080933C01FF91EF91BF91AF919F918F91B2
:10EE20007F916F915F914F913F912F910F900BBE0A
:10EE30000F900FBE0F901F9018956F927F928F9238
:10EE40009F92AF92BF92CF92DF92EF92FF920F9379
:10EE50001F93CF93DF93CDB7DEB76DB67EB68DB778
:10EE60009EB74F970FB6F8949EBF0FBE8DBF0DB7DC
:10EE70001EB70C5F1F4F0C7F6CE973E080E092E0DF
:10EE8000A2DA009709F0F2DC80913D01811116C0F1
:10EE90008091380190913901A0913A01B0913B01E4
:10EEA000892B8A2B8B2B51F48CB59DB58F359F45C3
:10EEB00028F081E080933D0180933C0180913C01EA
:10EEC000882309F451C010923C0160912E01709189
:10EED0002F0180913001909131012CD420E031E05C
:10EEE000F8013183208348E050E05383428346E0B9
:10EEF000448354E0558337832683E2E3F1E0D8016D
:10EF00001896242F01900D922A95E1F7D8011E96AC
:10EF10006D937D938D939C935197F8017296DF01C9
:10EF20001D924A95E9F7F801608F718F828F938F58
:10EF30001F921F92812C912CA12CB12CC12CD12C71
:10EF40009CE1E92EF12C28E036E04091000150913F
:10EF5000010160910201709103018091040190917F
:10EF60000501CCDA0F900F900FB6F8947EBE0FBE5D
:10EF70006DBEDF91CF911F910F91FF90EF90DF90C9
:10EF8000CF90BF90AF909F908F907F906F9008959B
:10EF900080E090E007D48F3F09F51092320180E8BD
:10EFA000809333018FE28093340181E180933501B6
:10EFB00082E28093360183E38093370183E09AE015
:10EFC000A8EAB0EC80932E0190932F01A09330011A
:10EFD000B093310181E080939B0310C046E050E084
:10EFE00060E070E082E391E0CDD344E050E066E081
:10EFF00070E08EE291E0C6D310929B0382E391E031
:10F0000032C910923F0110923E01109241011092BC
:10F0100040010895AF92BF92CF92DF92EF92FF929C
:10F020000F931F93CF93DF936B01A0913E01B0919B
:10F030003F0122E4A22E21E0B22E7D01C0E0D0E00B
:10F0400013C0F5010081118122813381FAE0AF0EF6
:10F05000B11CFC0140815181628173810417150745
:10F060002607370741F02196CA17DB0751F7A8306A
:10F07000B10560F405C0CF3FFFEFDF0741F5F7CFE3
:10F080001196B0933F01A0933E010DC0E090400166
:10F09000F090410197012F5F3F4F27703327309346
:10F0A0004101209340014AE04E9D90014F9D300D5B
:10F0B0001124F901EE5BFE4FEC0188819981AA8150
:10F0C000BB8180839183A283B383D90106C08AE088
:10F0D0008C9FD0018D9FB00D1124AA5BBE4F86E09E
:10F0E000F60101900D928A95E1F7DF91CF911F9182
:10F0F0000F91FF90EF90DF90CF90BF90AF90089569
:10F10000CF92DF92EF92FF920F931F93CF93DF93F3
:10F110006B01E2E4F1E0E0903E01F0903F01C0E0DD
:10F12000D0E010C000811181228133813A96DC0148
:10F130004D915D916D917C91041715072607370756
:10F1400029F02196CE15DF0569F714C0CF3FBFEF38
:10F15000DB0781F08AE08C9FF0018D9FF00D112478
:10F16000EA5BFE4F86E0D60101900D928A95E1F7A9
:10F1700081E001C080E0DF91CF911F910F91FF905E
:10F18000EF90DF90CF900895CF92DF92EF92FF92B1
:10F190000F931F93CF93DF93CDB7DEB7CE57D140F8
:10F1A0000FB6F894DEBF0FBECDBFCD58DE4F4883FB
:10F1B000C357D140CC58DE4F5883C457D140CB58A9
:10F1C000DE4F6883C557D140CA58DE4F7883C65793
:10F1D000D140C958DE4F8883C757D140C858DE4F49
:10F1E0009883C857D140F60182ED94E0A0E0B0E0EA
:10F1F00089839A83AB83BC8384819581A681B781FF
:10F200008D839E83AF83B8871B861A868081918108
:10F21000A281B3810297A105B10509F041C08085A3
:10F22000883009F03DC081E08093920147E650E0CC
:10F230006FEF70E0CE01845F9E4F9DD247E650E0B5
:10F2400060E070E0CE01845F9E4FB4D289E0898790
:10F250008BE0E82EFF24F3948E010F5F1F4FCD58F3
:10F26000DE4F2881C357D140CC58DE4F3881C45778
:10F27000D140CB58DE4F4881C557D140CA58DE4FE8
:10F280005881C657D140C958DE4F6881C757D14011
:10F29000C858DE4F7881C857D14083E593EC93DAA4
:10F2A000C258DE4F0FB6F894DEBF0FBECDBFDF9160
:10F2B000CF911F910F91FF90EF90DF90CF90089525
:10F2C000CF92DF92EF92FF920F931F93CF93DF9332
:10F2D000CDB7DEB7C751D1400FB6F894DEBF0FBE31
:10F2E000CDBFC45FDE4F4883CC50D140C35FDE4FFB
:10F2F0005883CD50D140C25FDE4F6883CE50D1409D
:10F30000C15FDE4F7883CF50D140C05FDE4F88832E
:10F31000C051D140CF5EDE4F9883C151D140F6013C
:10F320008085813051F582ED94E0A0E0B0E08983E2
:10F330009A83AB83BC8384819581A681B7818D83B9
:10F340009E83AF83B88782E089871B861A869BE0FD
:10F35000E92EFF24F3948E010F5F1F4F9A01AB013A
:10F36000C05FDE4F6881C051D140CF5EDE4F7881F3
:10F37000C151D14080E593EC26DAC95EDE4F0FB66D
:10F38000F894DEBF0FBECDBFDF91CF911F910F91DB
:10F39000FF90EF90DF90CF9008952FEF3FEFE0E0E8
:10F3A000F0E011C04491242768E0A90156954795E3
:10F3B00020FF05C021E030EA2427352701C09A014B
:10F3C000615099F73196E817F90761F73093970183
:10F3D0002093960108959F92AF92BF92CF92DF92B1
:10F3E000EF92FF920F931F93CF93DF93CDB7DEB7CA
:10F3F000C751D1400FB6F894DEBF0FBECDBFC45F7A
:10F40000DE4F4883CC50D140C35FDE4F5883CD5090
:10F41000D140C25FDE4F6883CE50D140C15FDE4F26
:10F420007883CF50D140C05FDE4F8883C051D14038
:10F43000CF5EDE4F9883C151D140CE5EDE4FE88271
:10F44000C251D140CD5EDE4FF882C351D140CC5E77
:10F45000DE4F0883C451D140CB5EDE4F1883C551C7
:10F46000D140CA5EDE4F2883C651D140C95EDE4F0F
:10F470003883C751D140F60182ED94E0A0E0B0E0BE
:10F4800089839A83AB83BC8384819581A681B7816C
:10F490008D839E83AF83B8871B861A8680858831CB
:10F4A000C9F020F4863109F080C007C08A3109F420
:10F4B00058C08C3109F079C067C081E08093920117
:10F4C0001092930181859285909395018093940188
:10F4D00087E16AC0018512854BE0C40ED11CE19919
:10F4E000FECFC801A0E0B0E023E0FC01A0935B00E8
:10F4F00020936800E8952091680020FDFCCF20E073
:10F5000030E099249394F601E20FF31FF080A901F3
:10F51000400F511F60E070E0B180A12CF501EF0DAC
:10F52000F11D7F010701FA0160935B009092680072
:10F53000E89511242E5F3F4F2115F1E03F0719F7A1
:10F5400025E0FC01A0935B0020936800E895809182
:10F55000680080FDFCCF81E180936800E89589E137
:10F5600023C08BE1898721853285DE011C9680E0EE
:10F5700090E0FC01E20FF31FE491ED9301968115F9
:10F5800041E09407B1F711C081E08093930180912D
:10F5900094019091950101DF44E050E064E670E051
:10F5A00084E991E007D18DE189874BE0E42EFF24C7
:10F5B000F3948E010F5F1F4FC45FDE4F2881CC5044
:10F5C000D140C35FDE4F3881CD50D140C25FDE4FA6
:10F5D0004881CE50D140C15FDE4F5881CF50D140DD
:10F5E000C05FDE4F6881C051D140CF5EDE4F788171
:10F5F000C151D14082E593ECE6D8C95EDE4F0FB62B
:10F60000F894DEBF0FBECDBFDF91CF911F910F9158
:10F61000FF90EF90DF90CF90BF90AF909F900895B4
:10F62000CF93DF9300D000D0CDB7DEB744E050E0F9
:10F6300064E670E0CE010196A5D089819A81ADDEA5
:10F6400081E040919601509197012B813C814217B6
:10F65000530709F080E00F900F900F900F90DF910B
:10F66000CF910895CF93F8940E9466F091DC76D8FC
:10F6700060E679EF80E593EC7BD86BEE79EF82E57D
:10F6800093EC76D864EC78EF83E593EC71D8AD9A7F
:10F69000AE9AAF9A85E08EBD87B7846087BF1DBCE8
:10F6A0001CBCC0E080919301882329F0B9DF81114F
:10F6B00016C010929301C11110C080919201811166
:10F6C0000CC08CB59DB58C369E4E18F406B602FE65
:10F6D00004C0A6DF811103C0C1E0AFDBE3CFAD986A
:10F6E000AE98AF980C94000080E090E0CF91089520
:10F6F000A1E21A2EAA1BBB1BFD010DC0AA1FBB1F36
:10F70000EE1FFF1FA217B307E407F50720F0A21BA7
:10F71000B30BE40BF50B661F771F881F991F1A9414
:10F7200069F760957095809590959B01AC01BD013E
:10F73000CF01089569279627692778278727782793
:10F74000089581E090E0F8944BC0FB01DC0104C017
:10F750008D910190801921F441505040C8F7881BC9
:10F76000990B0895FB01DC0102C001900D924150FC
:10F770005040D8F70895DC0101C06D9341505040CE
:10F78000E0F70895DC01CB01FC01E199FECF06C052
:10F79000FFBBEEBBE09A31960DB20D924150504046
:10F7A000B8F70895E199FECF9FBB8EBBE09A9927E9
:10F7B0008DB30895DC01CB0102C02D9105D04150DD
:10F7C0005040D8F70895262FE199FECF9FBB8EBBFE
:10F7D0002DBB0FB6F894E29AE19A0FBE01960895F8
:04F7E000F894FFCFCB
:06F7E400FFFFFFFFFFFF25
:040000031000E00009
:00000001FF
