:1000000013C0C2C9EAC968CA2AC098CA28C027C092
:1000100026C02BCA24C023C0F6C621C020C01FC0E2
:100020001EC01DC01CC01BC011241FBECFEFD2E0DC
:10003000DEBFCDBF11E0A0E0B1E0EAE2F7E102C02F
:1000400005900D92A035B107D9F721E0A0E5B1E008
:1000500001C01D92A636B207E1F730D664CBD0CFEF
:10006000CF92DF92EF92FF920F931F93CF93DF9384
:100070001F92CDB7DEB7C82E1982D0904D01F090F7
:100080004E01E12C8E010F5F1F4F21E047ED6D2DDA
:100090008F2D78D2882361F099819F7CC110906167
:1000A0009983E12C098121E046ED6D2D8F2DB8D289
:1000B0000F90DF91CF911F910F91FF90EF90DF9004
:1000C000CF900895DF92EF92FF920F931F93CF93FB
:1000D000DF9300D0CDB7DEB7082F81E1F8D2011150
:1000E00011C01A82D0904D01F0904E01E12C8E018A
:1000F0000E5F1F4F25E047ED6D2D8F2D43D28823D6
:1001000029F006C080E0ACDF8111EBCF80E01EC09B
:100110000A810F7C0A83E12C25E046ED6D2D8F2DA1
:100120007FD2882399F319828E010F5F1F4F20E041
:1001300047ED6D2D8F2D26D2882341F3098107606D
:10014000098320E046ED6D2D8F2D6AD20F900F9020
:10015000DF91CF911F910F91FF90EF90DF90089565
:1001600081E1FFD291E089270895DF92EF92FF921B
:100170000F931F93CF93DF931F92CDB7DEB71982F2
:10018000D0904D01F0904E01E12C8E010F5F1F4F7A
:1001900028E047ED6D2D8F2DF5D1811102C080E053
:1001A00034C0E12C8E010F5F1F4F28E047ED6D2D0D
:1001B0008F2DE8D1882399F389818093510129E01B
:1001C00047ED6D2D8F2DDED1882349F329E047EDD2
:1001D0006D2D8F2DD7D1882311F389818093500104
:1001E0008091510182958370898390916101911171
:1001F0000BC08150823030F480915A01811102C0CD
:1002000081E001C080E001D781E00F90DF91CF91C4
:100210001F910F91FF90EF90DF900895CF9381E0B1
:10022000FED4A3DFC82F80E0FAD48C2FCF9108959D
:100230000895FF920F931F93CF93DF93F82E81E0E1
:10024000B5D620E137E249E150E0FA013197F1F704
:100250002150310921153105C1F7C4E2D4EF09E17C
:1002600010E0FF2099F080E0A1D6FE013197F1F770
:1002700081E09CD628E833E1F8013197F1F721506D
:10028000310921153105C1F7FA94EBCF88E893E1E4
:1002900029E130E0F9013197F1F701970097D1F7A3
:1002A00080E084D680E197E229E130E0F9013197DE
:1002B000F1F701970097D1F7DF91CF911F910F913F
:1002C000FF900895CF93DF93C82FD62F611101C0FF
:1002D0002DD28C2FFCD1DD2321F08C2FDF91CF91FB
:1002E0000EC2DF91CF9108951F93CF93DF931F929A
:1002F000CDB7DEB7182F862F642F4983E3DF4981FE
:10030000642F812F0F90DF91CF911F91DBCFBF9290
:10031000CF92DF92EF92FF920F931F93CF93DF93D1
:10032000E82EF62E8A01D22ED2D1DD2011F08E2DAC
:10033000E6D1F8011082C7E0D0E0CC24C3948F2D21
:10034000C6D1DD2011F08F2DDAD18C2D8A95F1F7F1
:10035000F801B0808E2D05D2482F0C2E01C0440F1D
:100360000A94EAF74B29F8014083DD2011F08F2D24
:10037000DDD18F2D95D18C2D8A95F1F72197F8F647
:1003800081E0DF91CF911F910F91FF90EF90DF906F
:10039000CF90BF900895FF920F931F93CF93DF9359
:1003A000C82F162F042FDBE0FF24F3948C2FD9D114
:1003B000811109C0D15019F484E03BDF05C08F2DB5
:1003C0008A95F1F7F3CFD1E08C2FB0D18C2F68D183
:1003D000812F7DD1002311F0812F91D181E08A9569
:1003E000F1F78C2F74D18C2F8AD181E08A95F1F7A7
:1003F0008D2FDF91CF911F910F91FF900895BF92A4
:10040000CF92DF92EF92FF920F931F93CF93DF93E0
:10041000F82EE62ED22EC7E0D0E0042F10E0BB2449
:10042000B394A8010C2E02C0559547950A94E2F7A3
:1004300040FF10C08F2DDD2021F049D18F2D5FD1DD
:1004400001C045D18F2D8DD1C82E81110DC081E005
:10045000F0DE50C0DD2019F08F2D68D103C060E0C0
:100460008F2D7CD18F2D1CD18E2D31D1DD2011F01F
:100470008E2D45D18B2D8A95F1F7DD2011F08E2D33
:1004800055D18E2D0DD18B2D8A95F1F7219748F6F8
:100490008F2D1DD1DD2011F08F2D31D181E08A9576
:1004A000F1F7CBE0D1E080915201882339F08E2D15
:1004B0000ED1DD2089F08E2D22D10EC08F2D51D18D
:1004C0008823A9F3C15021F483E0B3DEC12C12C00C
:1004D0008D2F8A95F1F7E7CF81E08A95F1F7DD203E
:1004E00011F08E2D23D18E2DDBD081E08A95F1F78E
:1004F000CC24C3948C2DDF91CF911F910F91FF904D
:10050000EF90DF90CF90BF900895FF920F931F93CD
:10051000CF93DF93D82FC62F1BE003E08D2F21D17F
:10052000811107C0802F8A95F1F71150B9F710E0BB
:1005300022C08C2F16D18823A9F38D2FF7D08D2FB1
:10054000AFD081E08A95F1F70BE083E0F82E8C2F95
:1005500008D1182F811108C08F2D8A95F1F701500D
:10056000B1F78D2FB4D007C08C2FE0D08C2F98D04E
:1005700081E08A95F1F7812FDF91CF911F910F9143
:10058000FF900895DF92EF92FF920F931F93CF9306
:10059000DF93D82FC62FF42ED22EB7DF8823B1F1E8
:1005A0002E2D4F2D4E7F6C2F8D2F29DF882351F15B
:1005B0002E2D4D2D6C2F8D2F22DF882319F18C2F9E
:1005C00086D0EE2011F08C2F9AD083E08A95F1F737
:1005D0006C2F8D2F9ADF8823C9F04F2D41602E2D6F
:1005E0006C2F8D2F0CDF882369F02E2DA8016C2F26
:1005F0008D2F8DDE182F882329F04E2D6C2F8D2FF7
:10060000CADE05C04E2D6C2F8D2F6EDE10E0812FBF
:10061000DF91CF911F910F91FF90EF90DF900895A0
:10062000CF92DF92EF92FF920F931F93CF93DF93BE
:100630001F92CDB7DEB7D82EC62EF22E498365DFC6
:10064000182F49818823F9F02E2D6C2D8D2DD7DEA2
:100650008823A1F02E2D4F2D6C2D8D2DD0DE8823DB
:1006600069F02E2D402F6C2D8D2DC9DE182F88237B
:1006700029F04E2D6C2D8D2D8EDE05C04E2D6C2D4E
:100680008D2D32DE10E0812F0F90DF91CF911F91E1
:100690000F91FF90EF90DF90CF90089540E024CE2F
:1006A000E82FE295EF70F0E0EE0FFF1FED5CFE4FDC
:1006B0000190F081E02D90818F7021E030E0082ED4
:1006C00001C0220F0A94EAF7922B90830895E82F35
:1006D000E295EF70F0E0EE0FFF1FED5CFE4F019032
:1006E000F081E02D90818F7021E030E0082E01C074
:1006F000220F0A94EAF72095292320830895E82FF2
:10070000E295EF70F0E0EE0FFF1FE55DFE4F019008
:10071000F081E02D90818F7021E030E0082E01C043
:10072000220F0A94EAF7922B90830895E82FE2951E
:10073000EF70F0E0EE0FFF1FE55DFE4F0190F081DE
:10074000E02D90818F7021E030E0082E01C0220F53
:100750000A94EAF720952923208308956111CFCFC9
:10076000E5CFE82FE295EF70F0E0EE0FFF1FED5DB3
:10077000FE4F0190F081E02D208130E08F7041E04C
:1007800050E002C0440F551F8A95E2F72423352319
:1007900081E0232B09F480E00895EF920F931F93DB
:1007A000E12C8C012CE043E160914D0180914E01E0
:1007B000E9DE1F910F91EF9008951F93CF93DF9380
:1007C0001F92CDB7DEB7182F1982CE010196E5DF53
:1007D000882329F09981912381E0911380E00F9083
:1007E000DF91CF911F910895EF920F931F93CF93B5
:1007F000DF931F92CDB7DEB71982E12C8E010F5F18
:100800001F4F282F43E160914D0180914E01BADEC8
:100810008981881F8827881F0F90DF91CF911F91B2
:100820000F91EF900895EF920F93CF93DF93D091B4
:100830004D01C0914E01E12C00E02FE042E16D2F0F
:100840008C2FEEDE20E042E16D2F8C2FE9DEDF9170
:10085000CF910F91EF900895BF92CF92DF92EF92D8
:10086000FF920F931F93CF93DF931F92CDB7DEB705
:10087000B82EF42E6983C0904D01D0904E01E12C2A
:100880008E010F5F1F4F282F43E16C2D8D2D7ADED7
:100890008823A9F099819F779983FF2011F000E8C0
:1008A00001C000E0092BE12C2B2D42E16C2D8D2D98
:1008B000B7DEFF2021F0E4ECF9E03197F1F70F907B
:1008C000DF91CF911F910F91FF90EF90DF90CF902C
:1008D000BF900895809153010895CF93DF93D82F4F
:1008E00085FF03C0D4FD0BC00DC0E0915401F09111
:1008F000550185E009958823A9F3C5E025C0D2FDFF
:100900000BC010C0E0915401F091550184E00995AD
:100910008823A9F3C6E018C0CD2FC170D0FF0CC04A
:10092000C0E012C0E0915401F091550182E00995B8
:10093000882391F3C4E008C0E0915401F09155017F
:1009400080E009958111C3E08C2FDF91CF9108954C
:10095000C4DF91E0811190E0892F089587FD03C0E5
:1009600086FD03C0BACF81E0089587E00895DF9245
:10097000EF92FF920F931F93CF93DF9300D0CDB7E9
:10098000DEB71982D0904D01F0904E01E12C8E011E
:100990000F5F1F4F2DE043E16D2D8F2DF3DD2CE018
:1009A00043E16D2D8F2DEEDD882341F08981809309
:1009B0005301D4DF882321F058D102C080E001C068
:1009C00081E08A8330DF8A810F900F90DF91CF9191
:1009D0001F910F91FF90EF90DF9008951F93CF9399
:1009E000DF931F92CDB7DEB7198281E018D1CE0117
:1009F0000196D3DE182F80E012D1112319F08981DE
:100A0000ADDF01C08FEF0F90DF91CF911F9108955F
:100A1000CF9381E004D1ABDFC82F80E000D18C2FD1
:100A2000CF91089582E39DCECF93C62F843018F4E2
:100A3000823030F00DC0843099F08530C9F025C087
:100A4000462F6FE681E008DF8823F9F081E017C0C8
:100A5000462F6FE683E000DF8823B9F084E00FC003
:100A6000462F6FE085E0F8DE882379F080E107C04B
:100A7000462F6FE086E0F0DE882339F080E29DDECD
:100A800091E08C1390E0892F01C080E0CF91089510
:100A90008F929F92AF92BF92CF92DF92EF92FF928E
:100AA0000F931F93CF93DF931F92CDB7DEB786309E
:100AB00068F490E0FC01EE0FFF1FEF5BFE4F00813A
:100AC0001181FC01E55CFE4FF08003C0F12C00E0D9
:100AD00010E00617170710F480E047C080E090E0B0
:100AE00028EE33E040E050E09ED549015A01B801BC
:100AF00080E090E028EE33E040E050E094D5B9018A
:100B0000CA0120E233E040E050E069D5B401C501FC
:100B100066D549015A01223C81E03807410551055B
:100B2000D8F21982C0904D01D0904E01E12C8E0177
:100B30000F5F1F4F2F2D43E16C2D8D2D23DD88235B
:100B400059F2C401825C914F24E0880F991F2A95C5
:100B5000E1F76EE571E02FD50981007F062B09834F
:100B60002F2D42E16C2D8D2D5BDD0F90DF91CF910C
:100B70001F910F91FF90EF90DF90CF90BF90AF90BB
:100B80009F908F90089583E3ECDD91E0892708958D
:100B900080E3E7DD91E089270895EF920F93CF93EB
:100BA000DF93009711F484EF93E0909355018093C5
:100BB000540180E38CDD80E3A2DD82E388DD82E303
:100BC0009EDD83E384DD83E39ADD84E380DD84E3DB
:100BD00096DD29DED0914D01C0914E01E12C0FEF41
:100BE0002BE042E16D2F8C2F1BDD811102C0C0E094
:100BF00010C0E12C00E729E042E16D2F8C2F10DDC1
:100C0000C82F8823A1F3C4DFD82F882311F0AFDECB
:100C1000CD2F8C2FDF91CF910F91EF900895982FCA
:100C2000809156018823E9F0992359F0909157015A
:100C3000911101C0F894909157019F5F90935701D3
:100C4000089590915701992359F09091570191502F
:100C50009093570190915701911103C07894089592
:100C600080E0089580916101089590916101992338
:100C700011F0811122C0909161019817F1F081115A
:100C800004C081E080936501089580936101109212
:100C9000630110926401109262011092650180E07C
:100CA00085D116BC85B5877029F4809158018F5F76
:100CB0008093580185B5856085BD089584E294EFE1
:100CC0000197F1F780E1E6E5F1E0DF011D928A95F9
:100CD000E9F7AEDA83B7897F846083BF88E085BD9A
:100CE00084EF87BD82E080936E00DCD13AD281E050
:100CF000809356017894000010925C01CAEFD0E016
:100D000080916001882319F089DA10926001809146
:100D10005E01882389F081E0F0D0882359F0CE016C
:100D20000197F1F704D1811105C081E080935D0145
:100D300082E09BDF10925E0180915F01882351F079
:100D400067DEC8DD05DE811103C081E080935D01AF
:100D500010925F0180915D01882321F090D2109262
:100D60005D010AC080915C01882341F0CE010197AA
:100D7000F1F758DE8111F5D110925C01809161018B
:100D8000882391F19091640180916301981761F13A
:100D900080916101823051F018F4813019F009C05E
:100DA000883038F41BDE811106C003C0C0D0882310
:100DB00011F080E05ADFECDE882329F081E0809397
:100DC0005F0111E001C010E081E097D0882339F085
:100DD000AED0811104C081E080935E0111E080916A
:100DE00063018093640101C010E08091580181117A
:100DF00087CF111185CF83B7816083BF889583B773
:100E00008E7F83BF7DCF1F920F920FB60F9211245A
:100E10002F933F934F935F936F937F938F939F9302
:100E2000AF93BF93EF93FF9381E0F9DE809161016F
:100E30002091620190E0880F991F30E0821793079C
:100E400024F0809162018170B1D0809162018F5F46
:100E500080936201209162018091610130E090E015
:100E60000196880F991F28173907C9F4109262015B
:100E700080916501882371F085B5877029F0809194
:100E8000580181508093580185B5887F85BD1092A7
:100E9000610105C0809163018F5F8093630180E0F1
:100EA000BEDEFF91EF91BF91AF919F918F917F91A6
:100EB0006F915F914F913F912F910F900FBE0F90C7
:100EC0001F90189520E030E0F901EB5FFE4F928112
:100ED000923029F49381981302C0848108952B5F86
:100EE0003F4F2E31310581F780E0089583E0EFDB3D
:100EF00084EC99E00197F1F708959FEF980F9530F2
:100F000048F490E065E070E045D38B5F9E4FFC01B4
:100F10008481089580E008958111E8CF83E0C0CBFB
:100F2000FBDF83E003DC80E1D2DB80E1E8CB80E122
:100F300018CCCF93DF93FC0180818130A9F491819B
:100F40008281911109C081110DC087E3EFDB86E337
:100F5000EDDB83E0A5DB06C0811101C0C7DFDF91B7
:100F6000CF91E5CF81E01FC09EEF980F9430D0F471
:100F700090E065E070E00ED3EC01CB5FDE4F818145
:100F8000811102C060E006C06881798116161706DB
:100F90002CF061E08B81DF91CF9146CD8B8178DDA4
:100FA0008111F7CF80E0DF91CF91089561E015C006
:100FB000CF93C82F662349F0811107C080915B0150
:100FC000882319F081E0CF91F1CF81E3AFDB6C2F63
:100FD00087E2CF91C3CB61E0EBCFCF93DF93C82FF4
:100FE000D62F87E2A3DB6C2F81E3B8DBDD2351F042
:100FF000C11108C080915901882321F081E0DF915F
:10100000CF91E9CFDF91CF91089580935B01CECF4F
:10101000CF93C82F86E38ADB87E388DBCC2321F0DC
:1010200084EC99E00197F1F761E086E397DB61E0FA
:1010300087E3CF9193CBEEE7F0E0808181608083FE
:1010400080E480937C0087E080937A00089580910B
:101050007A00806880937A0080917A00806480931F
:101060007A0080917A0086FDFCCF809179006091B2
:10107000780070E0782B882777FD8095982F21E8FD
:101080003EED40E050E0CFD2B901CA0120917A0094
:101090002F7720937A0020E137E240E050E09FD2A2
:1010A000C9010895CF9381E3FBDA87E2F9DA81E0A1
:1010B0007DDFC1DF81E034DF65E284E2EFDA82E0E8
:1010C00006DB86E1EDDA81E0EBDA87E100DB81E047
:1010D000F9D7811102C0C0E041C080E197E229E167
:1010E00030E0F9013197F1F701970097D1F7AFDFC1
:1010F000803D974020F481E080935A0102C081E056
:10110000AFD782E697E049DDC82F882321F386E335
:10111000C7DA87E3C5DA86E309DB87E307DB86E224
:10112000D6DA85E3D4DA87E08093690083E08DBB6B
:1011300080936B0081E080936D0085E08093680070
:1011400088E08093810020E13AE730938900209382
:10115000880082E080936F0080E028DF8C2FCF91A1
:1011600008958F929F92AF92BF92CF92DF92EF92AB
:10117000FF920F931F93CF93DF9300D01F92CDB7B1
:10118000DEB781E04CDD80E026DF81E041DF00E07A
:1011900011E0C12CA12C8824839484EDE82E80E3F7
:1011A000F82E99249394A8248A2D15DFF8018081C4
:1011B000882321F1B12CF801808189839A82BB8236
:1011C000CE010196B6DED82E882359F0F801808131
:1011D00090E065E070E0DED1FC01EB5FFE4F9482B1
:1011E0000DC0F7013197F1F7B394FAE0BF12E3CFE6
:1011F00082E08C0D3ADD80E012DD30C0C3940F5FD9
:101200001F4F85E0C812CFCF81E079DA80E593ECFB
:101210000197F1F786E173DA80E0FADE88EA91E679
:101220000197F1F781E08093590180E0F8DC81E0DB
:10123000D2DED0905B01D11003C0DD24D3940EC068
:1012400020E137E249E150E0FA013197F1F721500E
:10125000310921153105C1F781E0A8DE8D2D0F90F0
:101260000F900F90DF91CF911F910F91FF90EF9012
:10127000DF90CF90BF90AF909F908F9008958F9206
:101280009F92AF92BF92CF92DF92EF92FF920F9315
:101290001F93CF93DF9300D01F92CDB7DEB781E0CD
:1012A000BEDC87E343DA81E0B3DE81E03FDA00E0D1
:1012B00010E0AA24A3948824839424EDC22E20E372
:1012C000D22E94E0992E900EA8248A2D84DEC80197
:1012D00080509F4F7C01FC018481882301F1B12C57
:1012E00019821A821B82F70184818983BB82CE0115
:1012F00001961FDE882359F0F701848190E065E0B4
:1013000070E048D1FC01EB5FFE4F148208C0F6018B
:101310003197F1F7B394FAE0BF12E2CF1BC001504E
:1013200011090B3F8FEF180761F61092590180E009
:1013300076DC60E080E03CDE80E197E229E130E0AD
:10134000F9013197F1F701970097D1F780E043DE7B
:1013500080E00AC087DC811103C082E0890D85DC52
:1013600080E05DDC81E0890D0F900F900F90DF91A0
:10137000CF911F910F91FF90EF90DF90CF90BF9092
:10138000AF909F908F9008951F920F920FB60F927B
:1013900011242F933F934F935F936F937F938F937A
:1013A0009F93AF93BF93EF93FF9381E038DC81E08D
:1013B00080935C0180E033DCFF91EF91BF91AF91AE
:1013C0009F918F917F916F915F914F913F912F915D
:1013D0000F900FBE0F901F9018951F920F920FB68F
:1013E0000F9211242F933F934F935F936F937F93AB
:1013F0008F939F93AF93BF93EF93FF9381E00FDCA5
:10140000C2DB882389F010928500109284008091BD
:101410008100877029F4809158018F5F8093580173
:101420008091810083600CC080918100877029F0D9
:101430008091580181508093580180918100887F6C
:101440008093810080E0EBDBFF91EF91BF91AF9142
:101450009F918F917F916F915F914F913F912F91CC
:101460000F900FBE0F901F9018951F920F920FB6FE
:101470000F9211242F933F934F935F936F937F931A
:101480008F939F93AF93BF93EF93FF9381E0C7DB5D
:1014900080918100887F80938100809158018150E4
:1014A0008093580180915901882319F081E080933D
:1014B0005D0180E0B4DBFF91EF91BF91AF919F910F
:1014C0008F917F916F915F914F913F912F910F90ED
:1014D0000FBE0F901F9018951F920F920FB60F928C
:1014E00011242F933F934F935F936F937F938F9329
:1014F0009F93AF93BF93EF93FF9381E090DB17DD52
:10150000811103C081E080935E012AD6882319F0FF
:1015100081E08093600180E082DBFF91EF91BF91D9
:10152000AF919F918F917F916F915F914F913F917B
:101530002F910F900FBE0F901F9018951F920F9232
:101540000FB60F9211242F933F934F935F936F9396
:101550007F938F939F93AF93BF93EF93FF9381E01C
:101560005EDB16DB882319F081E080935F0180E069
:1015700056DBFF91EF91BF91AF919F918F917F913A
:101580006F915F914F913F912F910F900FBE0F90F0
:101590001F9018950024552704C0080E591F880F66
:1015A000991F009729F076956795B8F37105B9F7FB
:1015B000802D952F0895AA1BBB1B51E107C0AA1FC0
:1015C000BB1FA617B70710F0A61BB70B881F991FE4
:1015D0005A95A9F780959095BC01CD010895A1E297
:1015E0001A2EAA1BBB1BFD010DC0AA1FBB1FEE1F9D
:1015F000FF1FA217B307E407F50720F0A21BB30BE8
:10160000E40BF50B661F771F881F991F1A9469F763
:1016100060957095809590959B01AC01BD01CF01BF
:10162000089568940013E894A0E0B0E0E9E1FBE0DD
:101630001DC0EFEFE7F959016A015E23550FEE086F
:10164000FE2C87019B01AC019E23990F660B762F20
:10165000CB013BD0CDB7DEB7EAE024C02F923F925A
:101660004F925F926F927F928F929F92AF92BF92B2
:10167000CF92DF92EF92FF920F931F93CF93DF935E
:10168000CDB7DEB7CA1BDB0B0FB6F894DEBF0FBEBB
:10169000CDBF09942A88398848885F846E847D8408
:1016A0008C849B84AA84B984C884DF80EE80FD800A
:1016B0000C811B81AA81B981CE0FD11D0FB6F89480
:1016C000DEBF0FBECDBFED010895DF93CF939F9294
:1016D000A0E49A2E0024D001E001F00116950795B0
:1016E000F794E794D794C794B794A79448F41068F4
:1016F000A20FB31FC41FD51FE61FF71F081E191E18
:10170000220F331F441F551F661F771F881F991F05
:101710009A9421F79D01AE01BF01C00111249F9051
:0A172000CF91DF910895F894FFCFF8
:10172A0001020304050000000000E80301000000B4
:10173A000002000000000202000000020500000092
:10174A000204002C002300260029002E0025002870
:10175A00002B002D00240027002A000101030305A5
:10176A0006DC05DC05080708078813E40C252400B5
:00000001FF
