:1000000013C0EAC912CA96CA2AC0C6CA28C027C0E5
:1000100026C059CA24C023C0E2C621C020C01FC0C8
:100020001EC01DC01CC01BC011241FBECFEFD2E0DC
:10003000DEBFCDBF11E0A0E0B1E0E4E1F8E102C035
:1000400005900D92A235B107D9F711E0A2E5B1E014
:1000500001C01D92A836B107E1F7CADAD9CBD0CFDB
:10006000CF92DF92EF92FF920F931F93CF93DF9384
:100070000F92CDB7DEB7C82E1982D0905001F09004
:100080004F018D2D6F2D47ED21E08E010F5F1F4F2A
:10009000EE2460D2882379F089818F7C8983CC20FB
:1000A00011F0806189838D2D6F2D46ED21E009814E
:1000B000EE249FD201C080E00F90DF91CF911F917D
:1000C0000F91FF90EF90DF90CF900895DF92EF9225
:1000D000FF920F931F93CF93DF9300D0CDB7DEB77E
:1000E000F82E81E13ED3FF2021F080E0B9DF8823A4
:1000F00071F11A82D0905001F0904F018D2D6F2D2B
:1001000047ED25E08E010E5F1F4FEE2423D288239A
:10011000F1F00A810F7C0A838D2D6F2D46ED25E0CD
:1001200068D28823A1F019828D2D6F2D47ED20E034
:100130008E010F5F1F4F0ED2882349F0098107609F
:1001400009838D2D6F2D46ED20E053D201C080E054
:100150000F900F90DF91CF911F910F91FF90EF9033
:10016000DF90089581E188D391E089270895DF9297
:10017000EF92FF920F931F93CF93DF930F92CDB720
:10018000DEB71982D0905001F0904F018D2D6F2D68
:1001900047ED28E08E010F5F1F4FEE24DBD188234F
:1001A000C9F18D2D6F2D47ED28E08E010F5F1F4F98
:1001B000D1D1882379F18981809352018D2D6F2DC2
:1001C00047ED29E08E010F5F1F4FC4D1882311F145
:1001D0008D2D6F2D47ED29E08E010F5F1F4FBAD196
:1001E0008823C1F0898180935301809152018295C7
:1001F0008370898390916301992371F481508230D7
:1002000030F480915C01882311F481E001C080E02A
:10021000EED602C080E001C081E00F90DF91CF9167
:100220001F910F91FF90EF90DF900895CF9381E0A1
:1002300082D59DDFC82F80E07ED58C2FCF91089589
:100240000895EF92FF920F931F93CF93C82F81E0F1
:10025000A4D680E197E229E130E0F9013197F1F786
:100260000197D9F710C080E098D6C8010197F1F73F
:1002700081E093D688E893E1F7013197F1F7019790
:10028000D9F7C15005C004E214EF89E1E82EF12C42
:10029000CC2349F788E893E129E130E0F90131976F
:1002A000F1F70197D9F780E078D680E197E229E16C
:1002B00030E0F9013197F1F70197D9F7CF911F910C
:1002C0000F91FF90EF900895CF93DF93C82FD62F13
:1002D000662309F496D28C2F44D2DD2311F08C2FA3
:1002E00079D2DF91CF910895BF92CF92DF92EF92B2
:1002F000FF920F931F93CF93DF93F82EE62E8A0180
:10030000D22E2FD2DD2011F08F2D64D2F801108271
:10031000C7E0D0E0CC24C3948E2D23D2DD2011F091
:100320008E2D58D28C2D8A95F1F7F801B0808F2D43
:10033000A3D2482F50E00C2E02C0440F551F0A9440
:10034000E2F74B29F8014083DD2011F08E2D59D2C0
:100350008E2DF0D18C2D8A95F1F72197FFEFCF3FAD
:10036000DF07D1F681E0DF91CF911F910F91FF90D0
:10037000EF90DF90CF90BF900895FF920F931F935F
:10038000CF93DF93C82FD62F042F1BE0FF24F394C5
:1003900008C0115019F484E054DF07C08F2D8A95EE
:1003A000F1F78C2F69D28823A1F38C2F2AD28C2FBE
:1003B000C1D18D2FD6D1002311F08D2F0BD2D1E0DA
:1003C0008D2F8A95F1F78C2FCCD18C2F03D2DA9513
:1003D000F1F7DF91CF911F910F91FF900895CF9288
:1003E000DF92EF92FF920F931F93CF93DF93F82E3C
:1003F000E62ED22EC7E0D0E0042F10E0CC24C39428
:10040000A8010C2E02C0559547950A94E2F78F2D4E
:1004100040FF0DC0DD2021F0A4D18F2DDBD101C024
:10042000A0D18F2D29D2882351F481E02EC0DD2068
:1004300011F0E7D102C060E019D28F2D7BD18E2D53
:1004400090D1DD2011F08E2DC5D18C2D8A95F1F73C
:10045000DD2011F08E2DD5D18E2D6CD18C2D8A956D
:10046000F1F721978FEFCF3FD80751F68F2D79D134
:10047000DD2011F08F2DAED181E08A95F1F7CBE030
:1004800001E009C0C15021F483E0DBDE80E01EC042
:10049000802F8A95F1F780915401882321F48F2DC4
:1004A000EBD1882379F78E2D5CD1DD2011F08E2DD4
:1004B00091D181E08A95F1F7DD2011F08E2DA1D147
:1004C0008E2D38D181E08A95F1F781E0DF91CF91CF
:1004D0001F910F91FF90EF90DF90CF9008950F93B1
:1004E0001F93CF93DF93C82FD62F1BE003E005C0E7
:1004F000802F8A95F1F7115039F18C2FBDD18823C7
:10050000B9F38D2FB9D1882399F38C2F7AD18C2F01
:1005100011D181E08A95F1F71BE003E008C0802F3C
:100520008A95F1F7115019F48C2F1BD10DC08D2F26
:10053000A3D18823A1F38D2F64D18D2FFBD081E02F
:100540008A95F1F781E001C080E0DF91CF911F91A2
:100550000F910895DF92EF92FF920F931F93CF9325
:10056000DF93D82FC62FF42ED22EB9DF8823C1F106
:100570004F2D4E7F8D2F6C2F2E2D31DF882351F183
:100580008D2F6C2F4D2D2E2D2ADF882319F18C2FC6
:10059000E8D0EE2011F08C2F1DD183E08A95F1F781
:1005A0008D2F6C2F9CDF8823D9F04F2D41608D2F2C
:1005B0006C2F2E2D14DF882369F08D2F6C2FA8014E
:1005C0002E2D92DE882331F08D2F6C2F4E2DD5DE0F
:1005D00081E007C08C2F6E2D77DE8D2F6E2D74DE9F
:1005E00080E0DF91CF911F910F91FF90EF90DF900E
:1005F0000895DF92EF92FF920F931F93CF93DF93B3
:100600000F92CDB7DEB7F82ED62E122F498367DFB3
:100610004981882301F18F2D6D2D2E2DE0DE882359
:10062000A1F08F2D6D2D412F2E2DD9DE882369F05D
:100630008F2D6D2D402F2E2DD2DE882331F08F2D62
:100640006D2D4E2D9ADE81E007C08D2D6E2D3CDE86
:100650008F2D6E2D39DE80E00F90DF91CF911F91AD
:100660000F91FF90EF90DF900895EF920F93EE249B
:10067000C0DF0F91EF900895CF92DF92EF92FF923B
:100680000F931F93CF93DF930F92CDB7DEB7D82E82
:10069000C62EF22E498323DF4981882301F18D2D57
:1006A0006C2D2E2D9CDE8823A1F08D2D6C2D4F2DD1
:1006B0002E2D95DE882369F08D2D6C2DA8012E2D11
:1006C00013DE882331F08D2D6C2D4E2D56DE81E00A
:1006D00007C08C2D6E2DF8DD8D2D6E2DF5DD80E0A3
:1006E0000F90DF91CF911F910F91FF90EF90DF90CE
:1006F000CF900895EF920F931F93EE24BDDF1F91CB
:100700000F91EF9008951F93CF93DF930F92CDB782
:10071000DEB7182F862F642F4983D6DD812F4981BC
:10072000642FD2DD0F90DF91CF911F91089540E0AB
:10073000EADF0895E82FE295EF70F0E0EE0FFF1F7B
:10074000EF5FFE4F0190F081E02D90818F7021E0EE
:1007500030E002C0220F331F8A95E2F7922B90837C
:100760000895E82FE295EF70F0E0EE0FFF1FEF5FC6
:10077000FE4F0190F081E02D90818F7021E030E0FC
:1007800002C0220F331F8A95E2F720952923208388
:100790000895E82FE295EF70F0E0EE0FFF1FEF5F96
:1007A000FE4F0190F081E02D208130E08F7041E01C
:1007B00050E002C0440F551F8A95E2F724233523E9
:1007C00081E02115310509F480E00895E2DF91E030
:1007D00089270895E82FE295EF70F0E0EE0FFF1FF4
:1007E000E75FFE4F0190F081E02D90818F7021E056
:1007F00030E002C0220F331F8A95E2F7922B9083DC
:100800000895E82FE295EF70F0E0EE0FFF1FE75F2D
:10081000FE4F0190F081E02D90818F7021E030E05B
:1008200002C0220F331F8A95E2F7209529232083E7
:100830000895E82FE295EF70F0E0EE0FFF1FE75FFD
:10084000FE4F0190F081E02D208130E08F7041E07B
:1008500050E002C0440F551F8A95E2F72423352348
:1008600081E02115310509F480E00895662311F037
:10087000B1DF0895C6DF0895E82FE295EF70F0E04C
:10088000EE0FFF1FEF5EFE4F0190F081E02D208103
:1008900030E08F7041E050E002C0440F551F8A9550
:1008A000E2F72423352381E02115310509F480E0A6
:1008B0000895EF920F931F938C01809150016091E6
:1008C0004F0143E12CE0EE2445DE1F910F91EF90A4
:1008D00008951F93CF93DF930F92CDB7DEB7182FF4
:1008E0001982CE010196E5DF882321F099819123B9
:1008F00081E0911380E00F90DF91CF911F910895D7
:10090000EF920F931F93CF93DF930F92CDB7DEB784
:10091000282F19828091500160914F0143E18E018F
:100920000F5F1F4FEE2416DE8981881F8827881FDE
:100930000F90DF91CF911F910F91EF900895BF928B
:10094000CF92DF92EF92FF920F931F93CF93DF939B
:100950000F92CDB7DEB7D82EF42E6983B090500138
:10096000C0904F018B2D6C2D43E12D2D8E010F5F1B
:100970001F4FEE24EFDD8823B1F089818F778983C3
:10098000FF2011F000E801C000E0082B8B2D6C2D3A
:1009900042E12D2DEE242DDEFF2031F0E4ECF9E0D4
:1009A0003197F1F701C080E00F90DF91CF911F9157
:1009B0000F91FF90EF90DF90CF90BF900895EF924E
:1009C0000F93CF93DF93D0915001C0914F018D2FA2
:1009D0006C2F42E12FE000E0EE240BDE8D2F6C2F18
:1009E00042E120E006DEDF91CF910F91EF90089574
:1009F000809155010895CF93DF93C82F85FD08C0DE
:100A0000E0915601F091570185E00995882319F589
:100A1000C4FD08C0E0915601F091570184E00995AA
:100A20008823D9F4C2FD08C0E0915601F091570126
:100A300082E00995882399F4C0FD09C0E091560130
:100A4000F091570180E00995882319F409C080E0EE
:100A500007C083E005C085E003C086E001C084E0F4
:100A6000DF91CF910895C7DF91E0811190E0892F48
:100A7000089587FD04C086FD04C0BDDF089581E0B0
:100A8000089587E00895DF92EF92FF920F931F93EE
:100A9000CF93DF9300D0CDB7DEB71982D09050014D
:100AA000F0904F018D2D6F2D43E12DE08E010F5FF2
:100AB0001F4FEE244FDD8D2D6F2D43E12CE08E0175
:100AC0000F5F1F4F47DD882341F0898180935501D7
:100AD000D0DF882321F057D102C080E001C081E03F
:100AE0008A836DDF8A810F900F90DF91CF911F91E4
:100AF0000F91FF90EF90DF9008951F93CF93DF93B6
:100B00000F92CDB7DEB7198281E015D1CE010196E3
:100B1000D0DE182F80E00FD1112319F08981A9DFD1
:100B200001C08FEF0F90DF91CF911F910895CF9368
:100B300081E001D1A8DFC82F80E0FDD08C2FCF91BC
:100B4000089582E399DE0895CF93C62F843018F478
:100B5000823070F405C0843099F0853019F518C0E2
:100B600081E06FE64C2FEBDE8823E1F081E017C0D7
:100B700083E06FE64C2FE3DE8823A1F084E00FC012
:100B800085E06FE04C2FDBDE882361F080E107C059
:100B900086E06FE04C2FD3DE882321F080E299DEDF
:100BA00091E08C1390E0892FCF9108958F929F92BE
:100BB000AF92BF92CF92DF92EF92FF920F931F936B
:100BC000CF93DF930F92CDB7DEB7863068F490E015
:100BD000FC01EE0FFF1FE65EFE4F008111818A5D72
:100BE0009E4FFC01C08003C0CC2400E010E006173B
:100BF000170708F448C080E090E028EE33E040E0BA
:100C000050E0B0D54B015C01B80180E090E028EEE7
:100C100033E040E050E0A6D520E233E040E050E091
:100C2000CED5C501B401CBD549015A01223CF1E032
:100C30003F07F0E04F07F0E05F0728F11982F090DE
:100C40005001D0904F018F2D6D2D43E12C2D8E0141
:100C50000F5F1F4FEE247EDC8823A9F0C401825C65
:100C6000914F24E0880F991F2A95E1F76EE571E016
:100C700092D50981007F062B09838F2D6D2D42E1CE
:100C80002C2DB7DC01C080E00F90DF91CF911F9138
:100C90000F91FF90EF90DF90CF90BF90AF909F901B
:100CA0008F90089583E3E8DD91E08927089580E33C
:100CB000E3DD91E089270895EF920F93CF93DF93BF
:100CC000009711F480E894E09093570180935601C7
:100CD00080E347DD80E37EDD82E343DD82E37ADD8E
:100CE00083E33FDD83E376DD84E33BDD84E372DD94
:100CF00066DED0915001C0914F018D2F6C2F42E1E3
:100D00002BE00FEFEE2475DC882369F08D2F6C2F1C
:100D100042E129E000E76DDC882329F0C8DF882361
:100D200021F0B1DE02C080E001C081E0DF91CF910F
:100D30000F91EF900895909158019923E9F088233D
:100D400059F080915901882309F4F8948091590150
:100D50008F5F809359010EC080915901882361F003
:100D600080915901815080935901809159018823C4
:100D700029F4789481E0089580E0089581E0089551
:100D800080916301089590916301992311F0882364
:100D900029F590916301981709F1882321F481E0E6
:100DA000809367010895809363011092650110920A
:100DB0006601109264011092670180E0EED016BCCB
:100DC00085B590E087709070009729F480915A0162
:100DD0008F5F80935A0185B5856085BD08951F9208
:100DE0000F920FB60F9211242F933F934F935F935F
:100DF0006F937F938F939F93AF93BF93EF93FF93E3
:100E000081E099DF809163012091640190E0880F77
:100E1000991F30E08217930724F08091640181705C
:100E2000BCD0809164018F5F809364012091640144
:100E30008091630130E090E00196880F991F281798
:100E40003907E1F41092640180916701882389F0E9
:100E500085B590E087709070009729F080915A01D5
:100E6000815080935A0185B5887F85BD10926301BA
:100E700005C0809165018F5F8093650180E05BDF35
:100E8000FF91EF91BF91AF919F918F917F916F9162
:100E90005F914F913F912F910F900FBE0F901F9038
:100EA0001895482F20E030E0C90165E070E048D493
:100EB000FC01EF5CFE4F8281823029F4838184172C
:100EC00011F4848108952F5F3F4F2630310561F77B
:100ED00080E00895982F9150953048F490E065E0B7
:100EE00070E02ED4FC01EF5CFE4F8481089580E019
:100EF0000895882339F083E034DC84EC99E001978D
:100F0000F1F7089583E016DC0895F3DF83E079DCE0
:100F100080E127DC80E15EDC089580E1ADDC0895AE
:100F2000CF93DF93FC018081813099F4918182819C
:100F3000992349F4882369F587E363DC86E361DC60
:100F400080E0D7DF26C0882311F481E0D2DFE5DF1F
:100F500021C0982F92509430D0F490E065E070E07A
:100F6000EFD3EC01CF5CDE4F8181882319F48B81B4
:100F700060E00BC0688179811616170624F48B8116
:100F800015DE882321F08B8161E0DEDD03C080E087
:100F900001C081E0DF91CF910895CF93C82F87E200
:100FA00030DC81E36C2F62DCCC2331F480915B0177
:100FB000882311F081E002D0CF910895CF93DF9381
:100FC0000F92CDB7DEB7682F882339F480915D0189
:100FD000882319F081E0E1DF06C081E3698311DC39
:100FE00087E2698143DC0F90DF91CF910895809370
:100FF0005D01D3DF089585E3EDDB0895CF93C82F1E
:1010000086E3FFDB87E3FDDBCC2321F084EC99E072
:101010000197F1F786E361E029DC87E361E026DCF4
:10102000CF910895EEE7F0E080818160808380E4D5
:1010300080937C0087E080937A00089580917A0005
:10104000806880937A0080917A00806480937A002F
:1010500080917A0086FDFCCF209179006091780024
:10106000922F80E070E0682B792B882777FD8095A0
:10107000982F21E83EED40E050E074D3382F809166
:101080007A008F7780937A00832F20E137E240E067
:1010900050E095D3C90108951F93CF93DF93182F84
:1010A00080E07BDF28E833E189E190E0FC013197C3
:1010B000F1F721503040D1F70CC081E06EDFCE0156
:1010C0000197F1F780E069DFCE010197F1F7115048
:1010D00002C0C4E2D4EF112381F7DF91CF911F91B9
:1010E0000895CF93DF9300D00F92CDB7DEB7FE0106
:1010F000319693E0DF011D929A95E9F789836A831F
:10110000CF010EDF0F900F900F90DF91CF910895D8
:1011100081E310DB87E20EDB81E03FDF83DF81E0EC
:10112000F4DE84E265E203DB81E0D0D7882309F4B2
:1011300042C080E197E229E130E0F9013197F1F70F
:101140000197D9F77BDF27E0803D920720F481E00B
:1011500080935C0102C081E083D781E597E0ACDD3C
:10116000882359F186E3E6DA87E3E4DA86E349DBAC
:1011700087E347DB86E2F5DA85E3F3DA87E08093FD
:10118000690083E08DBB80936B0081E080936D00EC
:1011900085E08093680088E08093810080E19AE791
:1011A000909389008093880082E080936F0080E0B4
:1011B000F4DE81E0089580E0089580E008954F9284
:1011C0005F927F928F929F92AF92BF92CF92DF9267
:1011D000EF92FF920F931F93CF93DF9300D000D035
:1011E000CDB7DEB781E0A7DD80E0E8DE00E010E00B
:1011F000DD24AA24A39493E0792E4E010894811C47
:10120000911C24ED422E20E3522ECC24C394B02E08
:10121000DA248D2DD3DE8CE2E82E81E0F82EE00E6C
:10122000F11EF7018081882319F120E0F401872D58
:1012300011928A95E9F7F70180818983CA822B830D
:10124000C4012C836DDE2C81882359F0F701808145
:1012500090E065E070E074D2FC01EF5CFE4FC48268
:1012600007C0C2010197F1F72F5F2A30F9F606C0D7
:101270000F5F1F4F0530110551F61EC08B2D8E5F7D
:1012800082DD80E058DD80E003C081E086DE81E021
:101290000F900F900F900F90DF91CF911F910F91B2
:1012A000FF90EF90DF90CF90BF90AF909F908F9086
:1012B0007F905F904F90089580E0A0DE81E0809362
:1012C0005B0180E038DD81E079DE80915D0188237B
:1012D000F1F2DBCF6F927F928F929F92AF92BF928B
:1012E000CF92DF92EF92FF920F931F93CF93DF93F2
:1012F00000D000D0CDB7DEB781E01DDD87E381DA15
:1013000004E010E0DD24D3949924939443E0842EE8
:101310005E010894A11CB11C54ED652E50E3752E9E
:10132000C02ED9248D2D4ADE3CE2E32E31E0F32E8F
:10133000E00EF11EF7018081882311F120E0F50114
:10134000882D11928A95E9F7F701808189832B8393
:10135000C5012C83E5DD2C81882359F0F7018081BC
:1013600090E065E070E0ECD1FC01EF5CFE4F148290
:1013700007C0C3010197F1F72F5F2A3001F707C0BB
:1013800001501040FFEF0F3F1F0751F61DC0F8DC62
:10139000882319F48C2D8E5FF6DC80E0CCDC8C2D5C
:1013A0008F5F0F900F900F900F90DF91CF911F9153
:1013B0000F91FF90EF90DF90CF90BF90AF909F90F4
:1013C0008F907F906F90089510925B0180E0B3DC66
:1013D00080E0F4DD80E0E5CF1F920F920FB60F9210
:1013E00011242F933F934F935F936F937F938F932A
:1013F0009F93AF93BF93EF93FF9381E09CDC81E0D9
:1014000080935E0180E097DCFF91EF91BF91AF91F7
:101410009F918F917F916F915F914F913F912F910C
:101420000F900FBE0F901F9018951F920F920FB63E
:101430000F9211242F933F934F935F936F937F935A
:101440008F939F93AF93BF93EF93FF9381E073DCF0
:1014500029DC8823A1F010928500109284008091ED
:10146000810090E087709070009729F480915A0174
:101470008F5F80935A018091810083600FC08091BB
:10148000810090E087709070009729F080915A0158
:10149000815080935A0180918100887F80938100E0
:1014A00080E049DCFF91EF91BF91AF919F918F91C7
:1014B0007F916F915F914F913F912F910F900FBE50
:1014C0000F901F9018951F920F920FB60F92112434
:1014D0002F933F934F935F936F937F938F939F933C
:1014E000AF93BF93EF93FF9381E025DC8091810060
:1014F000887F8093810080915A01815080935A01A6
:1015000080915B01882319F081E080935F0180E086
:1015100012DCFF91EF91BF91AF919F918F917F91DD
:101520006F915F914F913F912F910F900FBE0F9050
:101530001F9018951F920F920FB60F9211242F93A0
:101540003F934F935F936F937F938F939F93AF934B
:10155000BF93EF93FF9381E0EEDBDFDC882319F488
:1015600081E080936001FED5882319F081E08093AB
:10157000620180E0E0DBFF91EF91BF91AF919F911D
:101580008F917F916F915F914F913F912F910F902C
:101590000FBE0F901F9018951F920F920FB60F92CB
:1015A00011242F933F934F935F936F937F938F9368
:1015B0009F93AF93BF93EF93FF9381E0BCDB77DB07
:1015C000882319F081E08093610180E0B4DBFF9112
:1015D000EF91BF91AF919F918F917F916F915F91AB
:1015E0004F913F912F910F900FBE0F901F90189524
:1015F00084E294EF0197F1F788E591E060E070E014
:1016000040E150E0FED01CD683B7897F846083BF61
:1016100088E085BD84EF87BD82E080936E0078DD31
:10162000CEDD81E0809358017894000010925E0135
:10163000CAEFD0E080916201882319F0F7D51092AB
:10164000620180916001882389F081E043DC882376
:1016500059F0CE010197F1F760DC882329F481E08D
:1016600080935F0182E08FDB1092600180916101C5
:10167000882351F05CDABCD9F6D9882319F481E0CB
:1016800080935F011092610180915F01882321F0B6
:1016900021DE10925F010AC080915E01882341F033
:1016A000CE010197F1F74DDA811189DD10925E01CB
:1016B00080916301882399F1909166018091650181
:1016C000981769F180916301823059F0833018F4E2
:1016D000813051F402C0883038F40FDA882331F4B5
:1016E00003C01BDC882311F080E04DDBE0DA8823A7
:1016F00029F081E08093610111E001C010E081E0F8
:10170000E9DB882339F009DC882321F481E0809328
:10171000600111E0809165018093660101C010E0D5
:1017200080915A01882309F085CF112309F082CFD7
:1017300083B7816083BF889583B78E7F83BF7ACF5D
:101740005527002480FF02C0060E571F660F771F23
:101750006115710521F096958795009799F7952F5A
:10176000802D0895FF27EE27BB27AA2760FF04C01E
:10177000A20FB31FE41FF51F220F331F441F551F75
:10178000969587957795679589F70097760771F70E
:10179000CF01BD010895AA1BBB1B51E107C0AA1FC1
:1017A000BB1FA617B70710F0A61BB70B881F991F02
:1017B0005A95A9F780959095BC01CD010895A1E2B5
:1017C0001A2EAA1BBB1BFD010DC0AA1FBB1FEE1FBB
:1017D000FF1FA217B307E407F50720F0A21BB30B06
:1017E000E40BF50B661F771F881F991F1A9469F782
:1017F00060957095809590959B01AC01BD01CF01DE
:101800000895DC0101C06D9341505040E0F7089508
:04181000F894FFCF7A
:10181400002D00240027002A002E00250028002B7C
:10182400002C0023002600290000DC05DC05080745
:1018340008078813E40C01010303050601020304ED
:10184400050000000000E803010000460502000056
:10185400000002020000000205000000020400254E
:0218640024005E
:00000001FF
